:1000000012C0189518951895189518951895189563
:10001000189503C118951895189518951895189561
:100020001895189518958FE58DBFC0E4E8E34E2E1E
:1000300084E08EBFD4E0F4E05F2EEEEFF3E0A0E6C4
:10004000B0E0A89584B7082E877F84BF88E1992700
:1000500081BD91BD88278D933197E9F783E389B9F5
:1000600080E080BD88E18AB96624789481E083BF0E
:1000700089B7816089BF882783BF8A9A8B9A8C9AB7
:10008000A098A198A298A3988FEF81BB882783BFDF
:1000900043D0FECF0027A3E3B0E08C9180FB0EF4A9
:1000A00001E041E0041709F005C0A4E8B0E08C913C
:1000B0008F5F8C930027A3E3B0E08C9181FB0EF45B
:1000C00001E041E0041709F005C0809184008150EF
:1000D000809384000027A3E3B0E08C9182FB0EF4B0
:1000E00001E041E0041709F001C016D00027A3E3A6
:1000F000B0E08C9183FB0EF401E041E0041709F0BD
:1001000007C0A0E2B4E0E4E8F0E0FAD0D2D0D9D061
:1001100082E390E0E6D0BECF979A8B9A8A9A929823
:10012000A4E8B0E0119698E08E91983018F4392F39
:10013000992702C038E09850881F939808F4939A42
:1001400000000000929A0000000092980000000059
:100150003A9591F7992341F78B9A8A9A9298A5E854
:10016000B0E0119698E08E91983018F4392F9927C5
:1001700002C038E09850881F939808F4939A0000C2
:100180000000929A000000009298000000003A954A
:1001900091F7992341F78B9A8A9A9298A6E8B0E052
:1001A000119698E08E91983018F4392F992702C053
:1001B00038E09850881F939808F4939A0000000044
:1001C000929A000000009298000000003A9591F782
:1001D000992341F78B9A8A9A9298A7E8B0E01196F2
:1001E00098E08E91983018F4392F992702C038E0A2
:1001F0009850881F939808F4939A00000000929AF0
:10020000000000009298000000003A9591F79923B1
:1002100041F79498949A979808950F921F922F926D
:100220003F924F925F927F92AF92BF920F931F9334
:100230002F933F934F935F936F937F938F939F93EE
:10024000AF93BF93CF93DF93EF93FF938FB78F93CA
:10025000009164000A3009F00AC06894A4E8B0E094
:100260008C9180F98C9380E08093640006C0E894C0
:10027000A4E8B0E08C9180F98C938F918FBFFF91AF
:10028000EF91DF91CF91BF91AF919F918F917F912E
:100290006F915F914F913F912F911F910F91BF905F
:1002A000AF907F905F904F903F902F901F900F9056
:1002B0001895A0E2B4E08D91882311F005D0FBCF12
:1002C00008958DE001D08AE05D9BFECF8CB9089542
:1002D0003197F1F70895689462F80895E89462F808
:1002E0000895EF93FF93EE27E82BE92B31F0E0ED33
:1002F000F7E03197F1F70197D1F7FF91EF9108956A
:1003000041E003C042E001C044E0E40F8827F81F49
:10031000829138E098E1880F991F9D933A95D1F723
:0C0320004A95B1F700C088278D9308951E
:00000001FF
