:1000000012C0189518951895189518951895189563
:10001000189541C218951895189518951895189522
:100020001895189518958FE58DBFC0E4E8E34E2E1E
:1000300084E08EBFD4E0F4E05F2EEEEFF3E0A0E6C4
:10004000B0E0A89584B7082E877F84BF88E1992700
:1000500081BD91BD88278D933197E9F783E389B9F5
:1000600080E080BD88E18AB96624789485E083BF0A
:1000700089B7816089BF882783BF8F9A8D9A8E9AAE
:10008000A098A198A298A398A29A8FEF81BB8827E5
:1000900083BFACE8B0E08C918F5F8C9300918C00B3
:1000A0000A3010F009F001C003C080E080938C009A
:1000B00081E090E0A2E6B0E08D939C9380E090E038
:1000C000A0E6B0E08D939C93A0E6B0E00D911C916A
:1000D000073050E0150710F009F035C040918C0052
:1000E000A2E6B0E0AD90BC90A7E6B0E0AA0DBB1DC3
:1000F0000C91041710F009F001C00FC06894A0E63D
:10010000B0E08C91A8E8B0E017D20CD20C9016F0B9
:10011000092201C0082A0C920EC0E894A0E6B0E0C3
:100120008C91A8E8B0E008D2FDD10C9016F009221D
:1001300001C0082A0C92A2E6B0E0E4D1A0E6B0E04B
:10014000E1D108F4C1CF80E090E0A0E6B0E08D936B
:100150009C93A0E6B0E00D911C91073050E015078C
:1001600010F009F035C040918C00A2E6B0E0AD90EF
:10017000BC90A7E6B0E0AA0DBB1D0C91041710F0CF
:1001800009F001C00FC06894A0E6B0E08C91A9E826
:10019000B0E0D2D1C7D10C9016F0092201C0082AD4
:1001A0000C920EC0E894A0E6B0E08C91A9E8B0E013
:1001B000C3D1B8D10C9016F0092201C0082A0C92C4
:1001C000A2E6B0E09FD1A0E6B0E09CD108F4C1CF98
:1001D00080E090E0A0E6B0E08D939C93A0E6B0E0D4
:1001E0000D911C91073050E0150710F009F034C054
:1001F00040918C00A2E6B0E0AD90BC90A7E6B0E0E4
:10020000AA0DBB1D0C91041710F009F00FC06894E3
:10021000A0E6B0E08C91AAE8B0E08ED183D10C903A
:1002200016F0092201C0082A0C920EC0E894A0E63C
:10023000B0E08C91AAE8B0E07FD174D10C9016F0B8
:10024000092201C0082A0C92A2E6B0E05BD1A0E628
:10025000B0E058D108F4C2CF80E090E0A0E6B0E072
:100260008D939C93A0E6B0E00D911C91073050E077
:10027000150710F009F034C040918C00A2E6B0E000
:10028000AD90BC90A7E6B0E0AA0DBB1D0C91041781
:1002900010F009F00FC06894A0E6B0E08C91ABE8D4
:1002A000B0E04AD13FD10C9016F0092201C0082AD3
:1002B0000C920EC0E894A0E6B0E08C91ABE8B0E000
:1002C0003BD130D10C9016F0092201C0082A0C92C3
:1002D000A2E6B0E017D1A0E6B0E014D108F4C2CF96
:1002E00059D0A4E6B0E00ED1A4E6B0E00D911C9187
:1002F0000C3251E0150710F009F001C04AC080E04F
:1003000090E0A4E6B0E08D939C9381E090E0A0E6BD
:10031000B0E08D939C93A0E6B0E00D911C9100326B
:1003200050E0150710F009F010C080916600A0E6BB
:10033000B0E0AD90BC90A7E6B0E0AA0DBB1D8C93D9
:10034000A0E6B0E0DFD008F4E6CF0091670000300F
:1003500009F00DC0A6E6B0E08C918F5F8C93009100
:1003600066000A3008F403C081E0809367000091C2
:100370006700013009F00DC08091660081508093C4
:10038000660000916600003009F003C080E08093B1
:1003900067007FCEAA9A8D9A8F9A9798A8E8B0E0C6
:1003A000119698E08E91983018F4392F992702C051
:1003B00038E09850881F959808F4959A000000003E
:1003C000979A000000009798000000003A9591F776
:1003D000992341F78D9A8F9A9798A9E8B0E01196E2
:1003E00098E08E91983018F4392F992702C038E0A0
:1003F0009850881F959808F4959A00000000979AE5
:10040000000000009798000000003A9591F79923AA
:1004100041F78D9A8F9A9798AAE8B0E0119698E0E4
:100420008E91983018F4392F992702C038E09850EF
:10043000881F959808F4959A00000000979A00008C
:1004400000009798000000003A9591F7992341F732
:100450008D9A8F9A9798ABE8B0E0119698E08E91BC
:10046000983018F4392F992702C038E09850881F27
:10047000959808F4959A00000000979A00000000F3
:100480009798000000003A9591F7992341F79698C4
:10049000969AAA9808950F921F922F923F924F9288
:1004A0005F927F92AF92BF920F931F932F933F93D0
:1004B0004F935F936F937F938F939F93AF93BF936C
:1004C000CF93DF93EF93FF938FB78F938F918FBF6E
:1004D000FF91EF91DF91CF91BF91AF919F918F915C
:1004E0007F916F915F914F913F912F911F910F914C
:1004F000BF90AF907F905F904F903F902F901F9054
:100500000F901895ED91FC91EF5FFF4FFC93EE93E8
:1005100008953197F1F70895689462F80895E89482
:1005200062F8089591E0882321F08894991F8A95B4
:10053000E9F7892F90950895883018F01196885022
:04054000FBCF089550
:00000001FF
