:1000000012C0189518951895189518951895189563
:10001000189567C2189518951895189518951895FC
:100020001895189518958FE58DBFC0E4E8E34E2E1E
:1000300084E08EBFD4E0F4E05F2EEEEFF3E0A0E6C4
:10004000B0E0A89584B7082E877F84BF88E1992700
:1000500081BD91BD88278D933197E9F783E389B9F5
:1000600080E080BD88E18AB96624789485E083BF0A
:1000700089B7816089BF882783BF8A9A8B9A8C9AB7
:10008000A098A198A298A3988FEF81BB882783BFDF
:1000900081E090E0A0E6B0E08D939C9381E08093B6
:1000A000640082E08093650083E08093660084E0D2
:1000B0008093670085E08093680086E08093690004
:1000C00087E080936A0088E080936B0089E08093EA
:1000D0006C008AE080936D0081E080936E0082E086
:1000E00080936F0083E08093700084E080937100C0
:1000F00085E08093720086E08093730087E08093B0
:10010000740088E080937500A8E8B0E08C918F5F60
:100110008C93009188000A3010F009F001C003C0F0
:1001200080E08093880081E090E0A2E6B0E08D93CB
:100130009C9380E090E0A0E6B0E08D939C93A0E6D5
:10014000B0E00D911C91073050E0150710F009F058
:1001500034C040918800A2E6B0E0AD90BC90A3E628
:10016000B0E0AA0DBB1D0C91041710F009F00FC0F0
:100170006894A0E6B0E08C91A4E8B0E036D22BD22F
:100180000C9016F0092201C0082A0C920EC0E894C7
:10019000A0E6B0E08C91A4E8B0E027D21CD20C908D
:1001A00016F0092201C0082A0C92A2E6B0E0E5D1BF
:1001B000A0E6B0E0E2D108F4C2CF80E090E0A0E693
:1001C000B0E08D939C93A0E6B0E00D911C910730B8
:1001D00050E0150710F009F034C040918800A2E605
:1001E000B0E0AD90BC90A3E6B0E0AA0DBB1D0C91B1
:1001F000041710F009F00FC06894A0E6B0E08C91ED
:10020000A5E8B0E0F2D1E7D10C9016F0092201C0C8
:10021000082A0C920EC0E894A0E6B0E08C91A5E804
:10022000B0E0E3D1D8D10C9016F0092201C0082A21
:100230000C92A2E6B0E0A1D1A0E6B0E09ED108F415
:10024000C2CF80E090E0A0E6B0E08D939C93A0E662
:10025000B0E00D911C91073050E0150710F009F047
:1002600034C040918800A2E6B0E0AD90BC90A3E617
:10027000B0E0AA0DBB1D0C91041710F009F00FC0DF
:100280006894A0E6B0E08C91A6E8B0E0AED1A3D12E
:100290000C9016F0092201C0082A0C920EC0E894B6
:1002A000A0E6B0E08C91A6E8B0E09FD194D10C908C
:1002B00016F0092201C0082A0C92A2E6B0E05DD136
:1002C000A0E6B0E05AD108F4C2CF80E090E0A0E60A
:1002D000B0E08D939C93A0E6B0E00D911C910730A7
:1002E00050E0150710F009F034C040918800A2E6F4
:1002F000B0E0AD90BC90A3E6B0E0AA0DBB1D0C91A0
:10030000041710F009F00FC06894A0E6B0E08C91DB
:10031000A7E8B0E06AD15FD10C9016F0092201C0C5
:10032000082A0C920EC0E894A0E6B0E08C91A7E8F1
:10033000B0E05BD150D10C9016F0092201C0082A20
:100340000C92A2E6B0E019D1A0E6B0E016D108F414
:10035000C2CF46D08AE090E02FD1D6CE0027A3E3CB
:10036000B0E08C9180FB0EF401E041E0041709F04D
:1003700005C0A4E8B0E08C918F5F8C930027A3E3C5
:10038000B0E08C9181FB0EF401E041E0041709F02C
:1003900005C0809184008150809384000027A3E3EE
:1003A000B0E08C9182FB0EF401E041E0041709F00B
:1003B00001C016D00027A3E3B0E08C9183FB0EF4BC
:1003C00001E041E0041709F007C0A0E2B4E0E4E86E
:1003D000F0E011D1D9D0E0D082E390E0EDD0BECFF3
:1003E000979A8B9A8A9A9298A4E8B0E0119698E02E
:1003F0008E91983018F4392F992702C038E0985020
:10040000881F939808F4939A00000000929A0000C5
:1004100000009298000000003A9591F7992341F767
:100420008B9A8A9A9298A5E8B0E0119698E08E91FE
:10043000983018F4392F992702C038E09850881F57
:10044000939808F4939A00000000929A000000002C
:100450009298000000003A9591F7992341F78B9A02
:100460008A9A9298A6E8B0E0119698E08E9198301A
:1004700018F4392F992702C038E09850881F9398B4
:1004800008F4939A00000000929A000000009298ED
:10049000000000003A9591F7992341F78B9A8A9AC8
:1004A0009298A7E8B0E0119698E08E91983018F4F1
:1004B000392F992702C038E09850881F939808F484
:1004C000939A00000000929A0000000092980000A9
:1004D00000003A9591F7992341F79498949A979848
:1004E00008950F921F922F923F924F925F927F92A8
:1004F000AF92BF920F931F932F933F934F935F93AE
:100500006F937F938F939F93AF93BF93CF93DF931B
:10051000EF93FF938FB78F93009164000A3009F037
:100520000AC06894A4E8B0E08C9180F98C9380E0D4
:100530008093640006C0E894A4E8B0E08C9180F950
:100540008C938F918FBFFF91EF91DF91CF91BF91EE
:10055000AF919F918F917F916F915F914F913F915B
:100560002F911F910F91BF90AF907F905F904F9010
:100570003F902F901F900F901895ED91FC91EF5F99
:10058000FF4FFC93EE930895A0E2B4E08D91882391
:1005900011F005D0FBCF08958DE001D08AE05D9B7E
:1005A000FECF8CB908953197F1F70895689462F8F9
:1005B0000895E89462F80895EF93FF93EE27E82BEF
:1005C000E92B31F0E0EDF7E03197F1F70197D1F742
:1005D000FF91EF91089591E0882321F08894991F6D
:1005E0008A95E9F7892F90950895883018F011962B
:1005F0008850FBCF089541E003C042E001C044E0D1
:10060000E40F8827F81F829138E098E1880F991F3E
:100610009D933A95D1F74A95B1F700C088278D93FD
:0206200008953B
:00000001FF
