:1000000012C0189518951895189518951895189563
:1000100018953FC018951895189518951895189526
:100020001895189518958FE58DBFC0E4E8E34E2E1E
:1000300084E08EBFD4E0F4E05F2EEEEFF3E0A0E6C4
:10004000B0E0A89584B7082E877F84BF88E1992700
:1000500081BD91BD88278D933197E9F783E389B9F5
:1000600080E080BD88E18AB96624789481E083BF0E
:1000700089B7816089BF882783BF8FEF81BB81E00B
:1000800083BF84E690E049D082B390E8892782BBA1
:10009000F8CF0F921F922F923F924F925F927F92D2
:1000A000AF92BF920F931F932F933F934F935F9302
:1000B0006F937F938F939F93AF93BF93CF93DF9370
:1000C000EF93FF938FB78F9382B390E4892782BB1E
:1000D0008F918FBFFF91EF91DF91CF91BF91AF9142
:1000E0009F918F917F916F915F914F913F912F9150
:1000F0001F910F91BF90AF907F905F904F903F9076
:100100002F901F900F9018953197F1F708956894EC
:1001100062F80895E89462F80895EF93FF93EE274C
:10012000E82BE92B31F0E0EDF7E03197F1F701979B
:08013000D1F7FF91EF91089552
:00000001FF
